{
  "_format": "hh-sol-artifact-1",
  "contractName": "Bundle",
  "sourceName": "contracts/Bundle.sol",
  "abi": [
    {
      "inputs": [
        {
          "internalType": "address",
          "name": "initialOwner",
          "type": "address"
        }
      ],
      "stateMutability": "nonpayable",
      "type": "constructor"
    },
    {
      "inputs": [
        {
          "internalType": "address",
          "name": "sender",
          "type": "address"
        },
        {
          "internalType": "uint256",
          "name": "tokenId",
          "type": "uint256"
        },
        {
          "internalType": "address",
          "name": "owner",
          "type": "address"
        }
      ],
      "name": "ERC721IncorrectOwner",
      "type": "error"
    },
    {
      "inputs": [
        {
          "internalType": "address",
          "name": "operator",
          "type": "address"
        },
        {
          "internalType": "uint256",
          "name": "tokenId",
          "type": "uint256"
        }
      ],
      "name": "ERC721InsufficientApproval",
      "type": "error"
    },
    {
      "inputs": [
        {
          "internalType": "address",
          "name": "approver",
          "type": "address"
        }
      ],
      "name": "ERC721InvalidApprover",
      "type": "error"
    },
    {
      "inputs": [
        {
          "internalType": "address",
          "name": "operator",
          "type": "address"
        }
      ],
      "name": "ERC721InvalidOperator",
      "type": "error"
    },
    {
      "inputs": [
        {
          "internalType": "address",
          "name": "owner",
          "type": "address"
        }
      ],
      "name": "ERC721InvalidOwner",
      "type": "error"
    },
    {
      "inputs": [
        {
          "internalType": "address",
          "name": "receiver",
          "type": "address"
        }
      ],
      "name": "ERC721InvalidReceiver",
      "type": "error"
    },
    {
      "inputs": [
        {
          "internalType": "address",
          "name": "sender",
          "type": "address"
        }
      ],
      "name": "ERC721InvalidSender",
      "type": "error"
    },
    {
      "inputs": [
        {
          "internalType": "uint256",
          "name": "tokenId",
          "type": "uint256"
        }
      ],
      "name": "ERC721NonexistentToken",
      "type": "error"
    },
    {
      "inputs": [],
      "name": "EnforcedPause",
      "type": "error"
    },
    {
      "inputs": [],
      "name": "ExpectedPause",
      "type": "error"
    },
    {
      "inputs": [
        {
          "internalType": "address",
          "name": "owner",
          "type": "address"
        }
      ],
      "name": "OwnableInvalidOwner",
      "type": "error"
    },
    {
      "inputs": [
        {
          "internalType": "address",
          "name": "account",
          "type": "address"
        }
      ],
      "name": "OwnableUnauthorizedAccount",
      "type": "error"
    },
    {
      "anonymous": false,
      "inputs": [
        {
          "indexed": true,
          "internalType": "address",
          "name": "owner",
          "type": "address"
        },
        {
          "indexed": true,
          "internalType": "address",
          "name": "approved",
          "type": "address"
        },
        {
          "indexed": true,
          "internalType": "uint256",
          "name": "tokenId",
          "type": "uint256"
        }
      ],
      "name": "Approval",
      "type": "event"
    },
    {
      "anonymous": false,
      "inputs": [
        {
          "indexed": true,
          "internalType": "address",
          "name": "owner",
          "type": "address"
        },
        {
          "indexed": true,
          "internalType": "address",
          "name": "operator",
          "type": "address"
        },
        {
          "indexed": false,
          "internalType": "bool",
          "name": "approved",
          "type": "bool"
        }
      ],
      "name": "ApprovalForAll",
      "type": "event"
    },
    {
      "anonymous": false,
      "inputs": [
        {
          "indexed": false,
          "internalType": "uint256",
          "name": "_fromTokenId",
          "type": "uint256"
        },
        {
          "indexed": false,
          "internalType": "uint256",
          "name": "_toTokenId",
          "type": "uint256"
        }
      ],
      "name": "BatchMetadataUpdate",
      "type": "event"
    },
    {
      "anonymous": false,
      "inputs": [
        {
          "indexed": false,
          "internalType": "uint256",
          "name": "_tokenId",
          "type": "uint256"
        }
      ],
      "name": "MetadataUpdate",
      "type": "event"
    },
    {
      "anonymous": false,
      "inputs": [
        {
          "indexed": true,
          "internalType": "address",
          "name": "previousOwner",
          "type": "address"
        },
        {
          "indexed": true,
          "internalType": "address",
          "name": "newOwner",
          "type": "address"
        }
      ],
      "name": "OwnershipTransferred",
      "type": "event"
    },
    {
      "anonymous": false,
      "inputs": [
        {
          "indexed": false,
          "internalType": "address",
          "name": "account",
          "type": "address"
        }
      ],
      "name": "Paused",
      "type": "event"
    },
    {
      "anonymous": false,
      "inputs": [
        {
          "indexed": true,
          "internalType": "address",
          "name": "from",
          "type": "address"
        },
        {
          "indexed": true,
          "internalType": "address",
          "name": "to",
          "type": "address"
        },
        {
          "indexed": true,
          "internalType": "uint256",
          "name": "tokenId",
          "type": "uint256"
        }
      ],
      "name": "Transfer",
      "type": "event"
    },
    {
      "anonymous": false,
      "inputs": [
        {
          "indexed": false,
          "internalType": "address",
          "name": "account",
          "type": "address"
        }
      ],
      "name": "Unpaused",
      "type": "event"
    },
    {
      "inputs": [],
      "name": "_nextTokenId",
      "outputs": [
        {
          "internalType": "uint256",
          "name": "",
          "type": "uint256"
        }
      ],
      "stateMutability": "view",
      "type": "function"
    },
    {
      "inputs": [
        {
          "internalType": "address",
          "name": "to",
          "type": "address"
        },
        {
          "internalType": "uint256",
          "name": "tokenId",
          "type": "uint256"
        }
      ],
      "name": "approve",
      "outputs": [],
      "stateMutability": "nonpayable",
      "type": "function"
    },
    {
      "inputs": [
        {
          "internalType": "address",
          "name": "owner",
          "type": "address"
        }
      ],
      "name": "balanceOf",
      "outputs": [
        {
          "internalType": "uint256",
          "name": "",
          "type": "uint256"
        }
      ],
      "stateMutability": "view",
      "type": "function"
    },
    {
      "inputs": [
        {
          "internalType": "uint256",
          "name": "tokenId",
          "type": "uint256"
        }
      ],
      "name": "getApproved",
      "outputs": [
        {
          "internalType": "address",
          "name": "",
          "type": "address"
        }
      ],
      "stateMutability": "view",
      "type": "function"
    },
    {
      "inputs": [
        {
          "internalType": "address",
          "name": "owner",
          "type": "address"
        },
        {
          "internalType": "address",
          "name": "operator",
          "type": "address"
        }
      ],
      "name": "isApprovedForAll",
      "outputs": [
        {
          "internalType": "bool",
          "name": "",
          "type": "bool"
        }
      ],
      "stateMutability": "view",
      "type": "function"
    },
    {
      "inputs": [],
      "name": "name",
      "outputs": [
        {
          "internalType": "string",
          "name": "",
          "type": "string"
        }
      ],
      "stateMutability": "view",
      "type": "function"
    },
    {
      "inputs": [],
      "name": "owner",
      "outputs": [
        {
          "internalType": "address",
          "name": "",
          "type": "address"
        }
      ],
      "stateMutability": "view",
      "type": "function"
    },
    {
      "inputs": [
        {
          "internalType": "uint256",
          "name": "tokenId",
          "type": "uint256"
        }
      ],
      "name": "ownerOf",
      "outputs": [
        {
          "internalType": "address",
          "name": "",
          "type": "address"
        }
      ],
      "stateMutability": "view",
      "type": "function"
    },
    {
      "inputs": [],
      "name": "pause",
      "outputs": [],
      "stateMutability": "nonpayable",
      "type": "function"
    },
    {
      "inputs": [],
      "name": "paused",
      "outputs": [
        {
          "internalType": "bool",
          "name": "",
          "type": "bool"
        }
      ],
      "stateMutability": "view",
      "type": "function"
    },
    {
      "inputs": [],
      "name": "renounceOwnership",
      "outputs": [],
      "stateMutability": "nonpayable",
      "type": "function"
    },
    {
      "inputs": [
        {
          "internalType": "string",
          "name": "uri",
          "type": "string"
        }
      ],
      "name": "safeMint",
      "outputs": [],
      "stateMutability": "nonpayable",
      "type": "function"
    },
    {
      "inputs": [
        {
          "internalType": "address",
          "name": "from",
          "type": "address"
        },
        {
          "internalType": "address",
          "name": "to",
          "type": "address"
        },
        {
          "internalType": "uint256",
          "name": "tokenId",
          "type": "uint256"
        }
      ],
      "name": "safeTransferFrom",
      "outputs": [],
      "stateMutability": "nonpayable",
      "type": "function"
    },
    {
      "inputs": [
        {
          "internalType": "address",
          "name": "from",
          "type": "address"
        },
        {
          "internalType": "address",
          "name": "to",
          "type": "address"
        },
        {
          "internalType": "uint256",
          "name": "tokenId",
          "type": "uint256"
        },
        {
          "internalType": "bytes",
          "name": "data",
          "type": "bytes"
        }
      ],
      "name": "safeTransferFrom",
      "outputs": [],
      "stateMutability": "nonpayable",
      "type": "function"
    },
    {
      "inputs": [
        {
          "internalType": "address",
          "name": "operator",
          "type": "address"
        },
        {
          "internalType": "bool",
          "name": "approved",
          "type": "bool"
        }
      ],
      "name": "setApprovalForAll",
      "outputs": [],
      "stateMutability": "nonpayable",
      "type": "function"
    },
    {
      "inputs": [
        {
          "internalType": "bytes4",
          "name": "interfaceId",
          "type": "bytes4"
        }
      ],
      "name": "supportsInterface",
      "outputs": [
        {
          "internalType": "bool",
          "name": "",
          "type": "bool"
        }
      ],
      "stateMutability": "view",
      "type": "function"
    },
    {
      "inputs": [],
      "name": "symbol",
      "outputs": [
        {
          "internalType": "string",
          "name": "",
          "type": "string"
        }
      ],
      "stateMutability": "view",
      "type": "function"
    },
    {
      "inputs": [
        {
          "internalType": "uint256",
          "name": "tokenId",
          "type": "uint256"
        }
      ],
      "name": "tokenURI",
      "outputs": [
        {
          "internalType": "string",
          "name": "",
          "type": "string"
        }
      ],
      "stateMutability": "view",
      "type": "function"
    },
    {
      "inputs": [
        {
          "internalType": "address",
          "name": "from",
          "type": "address"
        },
        {
          "internalType": "address",
          "name": "to",
          "type": "address"
        },
        {
          "internalType": "uint256",
          "name": "tokenId",
          "type": "uint256"
        }
      ],
      "name": "transferFrom",
      "outputs": [],
      "stateMutability": "nonpayable",
      "type": "function"
    },
    {
      "inputs": [
        {
          "internalType": "address",
          "name": "newOwner",
          "type": "address"
        }
      ],
      "name": "transferOwnership",
      "outputs": [],
      "stateMutability": "nonpayable",
      "type": "function"
    },
    {
      "inputs": [],
      "name": "unpause",
      "outputs": [],
      "stateMutability": "nonpayable",
      "type": "function"
    }
  ],
  "bytecode": "0x60806040523480156200001157600080fd5b5060405162002f0e38038062002f0e8339818101604052810190620000379190620002a3565b806040518060400160405280600681526020017f42756e646c6500000000000000000000000000000000000000000000000000008152506040518060400160405280600381526020017f42444c00000000000000000000000000000000000000000000000000000000008152508160009081620000b591906200054f565b508060019081620000c791906200054f565b5050506000600760006101000a81548160ff021916908315150217905550600073ffffffffffffffffffffffffffffffffffffffff168173ffffffffffffffffffffffffffffffffffffffff16036200015a5760006040517f1e4fbdf700000000000000000000000000000000000000000000000000000000815260040162000151919062000647565b60405180910390fd5b6200016b816200017360201b60201c565b505062000664565b6000600760019054906101000a900473ffffffffffffffffffffffffffffffffffffffff16905081600760016101000a81548173ffffffffffffffffffffffffffffffffffffffff021916908373ffffffffffffffffffffffffffffffffffffffff1602179055508173ffffffffffffffffffffffffffffffffffffffff168173ffffffffffffffffffffffffffffffffffffffff167f8be0079c531659141344cd1fd0a4f28419497f9722a3daafe3b4186f6b6457e060405160405180910390a35050565b600080fd5b600073ffffffffffffffffffffffffffffffffffffffff82169050919050565b60006200026b826200023e565b9050919050565b6200027d816200025e565b81146200028957600080fd5b50565b6000815190506200029d8162000272565b92915050565b600060208284031215620002bc57620002bb62000239565b5b6000620002cc848285016200028c565b91505092915050565b600081519050919050565b7f4e487b7100000000000000000000000000000000000000000000000000000000600052604160045260246000fd5b7f4e487b7100000000000000000000000000000000000000000000000000000000600052602260045260246000fd5b600060028204905060018216806200035757607f821691505b6020821081036200036d576200036c6200030f565b5b50919050565b60008190508160005260206000209050919050565b60006020601f8301049050919050565b600082821b905092915050565b600060088302620003d77fffffffffffffffffffffffffffffffffffffffffffffffffffffffffffffffff8262000398565b620003e3868362000398565b95508019841693508086168417925050509392505050565b6000819050919050565b6000819050919050565b6000620004306200042a6200042484620003fb565b62000405565b620003fb565b9050919050565b6000819050919050565b6200044c836200040f565b620004646200045b8262000437565b848454620003a5565b825550505050565b600090565b6200047b6200046c565b6200048881848462000441565b505050565b5b81811015620004b057620004a460008262000471565b6001810190506200048e565b5050565b601f821115620004ff57620004c98162000373565b620004d48462000388565b81016020851015620004e4578190505b620004fc620004f38562000388565b8301826200048d565b50505b505050565b600082821c905092915050565b6000620005246000198460080262000504565b1980831691505092915050565b60006200053f838362000511565b9150826002028217905092915050565b6200055a82620002d5565b67ffffffffffffffff811115620005765762000575620002e0565b5b6200058282546200033e565b6200058f828285620004b4565b600060209050601f831160018114620005c75760008415620005b2578287015190505b620005be858262000531565b8655506200062e565b601f198416620005d78662000373565b60005b828110156200060157848901518255600182019150602085019450602081019050620005da565b868310156200062157848901516200061d601f89168262000511565b8355505b6001600288020188555050505b505050505050565b62000641816200025e565b82525050565b60006020820190506200065e600083018462000636565b92915050565b61289a80620006746000396000f3fe608060405234801561001057600080fd5b50600436106101375760003560e01c8063695850fb116100b857806395d89b411161007c57806395d89b4114610302578063a22cb46514610320578063b88d4fde1461033c578063c87b56dd14610358578063e985e9c514610388578063f2fde38b146103b857610137565b8063695850fb1461028457806370a08231146102a0578063715018a6146102d05780638456cb59146102da5780638da5cb5b146102e457610137565b80633f4ba83a116100ff5780633f4ba83a146101f257806342842e0e146101fc5780634a60f620146102185780635c975abb146102365780636352211e1461025457610137565b806301ffc9a71461013c57806306fdde031461016c578063081812fc1461018a578063095ea7b3146101ba57806323b872dd146101d6575b600080fd5b61015660048036038101906101519190611d05565b6103d4565b6040516101639190611d4d565b60405180910390f35b6101746103e6565b6040516101819190611df8565b60405180910390f35b6101a4600480360381019061019f9190611e50565b610478565b6040516101b19190611ebe565b60405180910390f35b6101d460048036038101906101cf9190611f05565b610494565b005b6101f060048036038101906101eb9190611f45565b6104aa565b005b6101fa6105ac565b005b61021660048036038101906102119190611f45565b6105be565b005b6102206105de565b60405161022d9190611fa7565b60405180910390f35b61023e6105e4565b60405161024b9190611d4d565b60405180910390f35b61026e60048036038101906102699190611e50565b6105fb565b60405161027b9190611ebe565b60405180910390f35b61029e600480360381019061029991906120f7565b61060d565b005b6102ba60048036038101906102b59190612140565b610640565b6040516102c79190611fa7565b60405180910390f35b6102d86106fa565b005b6102e261070e565b005b6102ec610720565b6040516102f99190611ebe565b60405180910390f35b61030a61074a565b6040516103179190611df8565b60405180910390f35b61033a60048036038101906103359190612199565b6107dc565b005b6103566004803603810190610351919061227a565b6107f2565b005b610372600480360381019061036d9190611e50565b61080f565b60405161037f9190611df8565b60405180910390f35b6103a2600480360381019061039d91906122fd565b610821565b6040516103af9190611d4d565b60405180910390f35b6103d260048036038101906103cd9190612140565b6108b5565b005b60006103df8261093b565b9050919050565b6060600080546103f59061236c565b80601f01602080910402602001604051908101604052809291908181526020018280546104219061236c565b801561046e5780601f106104435761010080835404028352916020019161046e565b820191906000526020600020905b81548152906001019060200180831161045157829003601f168201915b5050505050905090565b60006104838261099c565b5061048d82610a24565b9050919050565b6104a682826104a1610a61565b610a69565b5050565b600073ffffffffffffffffffffffffffffffffffffffff168273ffffffffffffffffffffffffffffffffffffffff160361051c5760006040517f64a0ae920000000000000000000000000000000000000000000000000000000081526004016105139190611ebe565b60405180910390fd5b6000610530838361052b610a61565b610a7b565b90508373ffffffffffffffffffffffffffffffffffffffff168173ffffffffffffffffffffffffffffffffffffffff16146105a6578382826040517f64283d7b00000000000000000000000000000000000000000000000000000000815260040161059d9392919061239d565b60405180910390fd5b50505050565b6105b4610a91565b6105bc610b18565b565b6105d9838383604051806020016040528060008152506107f2565b505050565b60085481565b6000600760009054906101000a900460ff16905090565b60006106068261099c565b9050919050565b60006008600081548092919061062290612403565b9190505590506106323382610b7b565b61063c8183610b99565b5050565b60008073ffffffffffffffffffffffffffffffffffffffff168273ffffffffffffffffffffffffffffffffffffffff16036106b35760006040517f89c62b640000000000000000000000000000000000000000000000000000000081526004016106aa9190611ebe565b60405180910390fd5b600360008373ffffffffffffffffffffffffffffffffffffffff1673ffffffffffffffffffffffffffffffffffffffff168152602001908152602001600020549050919050565b610702610a91565b61070c6000610bf5565b565b610716610a91565b61071e610cbb565b565b6000600760019054906101000a900473ffffffffffffffffffffffffffffffffffffffff16905090565b6060600180546107599061236c565b80601f01602080910402602001604051908101604052809291908181526020018280546107859061236c565b80156107d25780601f106107a7576101008083540402835291602001916107d2565b820191906000526020600020905b8154815290600101906020018083116107b557829003601f168201915b5050505050905090565b6107ee6107e7610a61565b8383610d1e565b5050565b6107fd8484846104aa565b61080984848484610e8d565b50505050565b606061081a82611044565b9050919050565b6000600560008473ffffffffffffffffffffffffffffffffffffffff1673ffffffffffffffffffffffffffffffffffffffff16815260200190815260200160002060008373ffffffffffffffffffffffffffffffffffffffff1673ffffffffffffffffffffffffffffffffffffffff16815260200190815260200160002060009054906101000a900460ff16905092915050565b6108bd610a91565b600073ffffffffffffffffffffffffffffffffffffffff168173ffffffffffffffffffffffffffffffffffffffff160361092f5760006040517f1e4fbdf70000000000000000000000000000000000000000000000000000000081526004016109269190611ebe565b60405180910390fd5b61093881610bf5565b50565b6000634906490660e01b7bffffffffffffffffffffffffffffffffffffffffffffffffffffffff1916827bffffffffffffffffffffffffffffffffffffffffffffffffffffffff19161480610995575061099482611157565b5b9050919050565b6000806109a883611239565b9050600073ffffffffffffffffffffffffffffffffffffffff168173ffffffffffffffffffffffffffffffffffffffff1603610a1b57826040517f7e273289000000000000000000000000000000000000000000000000000000008152600401610a129190611fa7565b60405180910390fd5b80915050919050565b60006004600083815260200190815260200160002060009054906101000a900473ffffffffffffffffffffffffffffffffffffffff169050919050565b600033905090565b610a768383836001611276565b505050565b6000610a8884848461143b565b90509392505050565b610a99610a61565b73ffffffffffffffffffffffffffffffffffffffff16610ab7610720565b73ffffffffffffffffffffffffffffffffffffffff1614610b1657610ada610a61565b6040517f118cdaa7000000000000000000000000000000000000000000000000000000008152600401610b0d9190611ebe565b60405180910390fd5b565b610b20611459565b6000600760006101000a81548160ff0219169083151502179055507f5db9ee0a495bf2e6ff9c91a7834c1ba4fdd244a5e8aa4e537bd38aeae4b073aa610b64610a61565b604051610b719190611ebe565b60405180910390a1565b610b95828260405180602001604052806000815250611499565b5050565b80600660008481526020019081526020016000209081610bb991906125f7565b507ff8e1a15aba9398e019f0b49df1a4fde98ee17ae345cb5f6b5e2c27f5033e8ce782604051610be99190611fa7565b60405180910390a15050565b6000600760019054906101000a900473ffffffffffffffffffffffffffffffffffffffff16905081600760016101000a81548173ffffffffffffffffffffffffffffffffffffffff021916908373ffffffffffffffffffffffffffffffffffffffff1602179055508173ffffffffffffffffffffffffffffffffffffffff168173ffffffffffffffffffffffffffffffffffffffff167f8be0079c531659141344cd1fd0a4f28419497f9722a3daafe3b4186f6b6457e060405160405180910390a35050565b610cc36114b5565b6001600760006101000a81548160ff0219169083151502179055507f62e78cea01bee320cd4e420270b5ea74000d11b0c9f74754ebdbfc544b05a258610d07610a61565b604051610d149190611ebe565b60405180910390a1565b600073ffffffffffffffffffffffffffffffffffffffff168273ffffffffffffffffffffffffffffffffffffffff1603610d8f57816040517f5b08ba18000000000000000000000000000000000000000000000000000000008152600401610d869190611ebe565b60405180910390fd5b80600560008573ffffffffffffffffffffffffffffffffffffffff1673ffffffffffffffffffffffffffffffffffffffff16815260200190815260200160002060008473ffffffffffffffffffffffffffffffffffffffff1673ffffffffffffffffffffffffffffffffffffffff16815260200190815260200160002060006101000a81548160ff0219169083151502179055508173ffffffffffffffffffffffffffffffffffffffff168373ffffffffffffffffffffffffffffffffffffffff167f17307eab39ab6107e8899845ad3d59bd9653f200f220920489ca2b5937696c3183604051610e809190611d4d565b60405180910390a3505050565b60008373ffffffffffffffffffffffffffffffffffffffff163b111561103e578273ffffffffffffffffffffffffffffffffffffffff1663150b7a02610ed1610a61565b8685856040518563ffffffff1660e01b8152600401610ef3949392919061271e565b6020604051808303816000875af1925050508015610f2f57506040513d601f19601f82011682018060405250810190610f2c919061277f565b60015b610fb3573d8060008114610f5f576040519150601f19603f3d011682016040523d82523d6000602084013e610f64565b606091505b506000815103610fab57836040517f64a0ae92000000000000000000000000000000000000000000000000000000008152600401610fa29190611ebe565b60405180910390fd5b805181602001fd5b63150b7a0260e01b7bffffffffffffffffffffffffffffffffffffffffffffffffffffffff1916817bffffffffffffffffffffffffffffffffffffffffffffffffffffffff19161461103c57836040517f64a0ae920000000000000000000000000000000000000000000000000000000081526004016110339190611ebe565b60405180910390fd5b505b50505050565b606061104f8261099c565b5060006006600084815260200190815260200160002080546110709061236c565b80601f016020809104026020016040519081016040528092919081815260200182805461109c9061236c565b80156110e95780601f106110be576101008083540402835291602001916110e9565b820191906000526020600020905b8154815290600101906020018083116110cc57829003601f168201915b5050505050905060006110fa6114f6565b9050600081510361110f578192505050611152565b60008251111561114457808260405160200161112c9291906127e8565b60405160208183030381529060405292505050611152565b61114d8461150d565b925050505b919050565b60007f80ac58cd000000000000000000000000000000000000000000000000000000007bffffffffffffffffffffffffffffffffffffffffffffffffffffffff1916827bffffffffffffffffffffffffffffffffffffffffffffffffffffffff1916148061122257507f5b5e139f000000000000000000000000000000000000000000000000000000007bffffffffffffffffffffffffffffffffffffffffffffffffffffffff1916827bffffffffffffffffffffffffffffffffffffffffffffffffffffffff1916145b80611232575061123182611576565b5b9050919050565b60006002600083815260200190815260200160002060009054906101000a900473ffffffffffffffffffffffffffffffffffffffff169050919050565b80806112af5750600073ffffffffffffffffffffffffffffffffffffffff168273ffffffffffffffffffffffffffffffffffffffff1614155b156113e35760006112bf8461099c565b9050600073ffffffffffffffffffffffffffffffffffffffff168373ffffffffffffffffffffffffffffffffffffffff161415801561132a57508273ffffffffffffffffffffffffffffffffffffffff168173ffffffffffffffffffffffffffffffffffffffff1614155b801561133d575061133b8184610821565b155b1561137f57826040517fa9fbf51f0000000000000000000000000000000000000000000000000000000081526004016113769190611ebe565b60405180910390fd5b81156113e157838573ffffffffffffffffffffffffffffffffffffffff168273ffffffffffffffffffffffffffffffffffffffff167f8c5be1e5ebec7d5bd14f71427d1e84f3dd0314c0f7b2291e5b200ac8c7c3b92560405160405180910390a45b505b836004600085815260200190815260200160002060006101000a81548173ffffffffffffffffffffffffffffffffffffffff021916908373ffffffffffffffffffffffffffffffffffffffff16021790555050505050565b60006114456114b5565b6114508484846115e0565b90509392505050565b6114616105e4565b611497576040517f8dfc202b00000000000000000000000000000000000000000000000000000000815260040160405180910390fd5b565b6114a383836117fa565b6114b06000848484610e8d565b505050565b6114bd6105e4565b156114f4576040517fd93c066500000000000000000000000000000000000000000000000000000000815260040160405180910390fd5b565b606060405180602001604052806000815250905090565b60606115188261099c565b5060006115236114f6565b90506000815111611543576040518060200160405280600081525061156e565b8061154d846118f3565b60405160200161155e9291906127e8565b6040516020818303038152906040525b915050919050565b60007f01ffc9a7000000000000000000000000000000000000000000000000000000007bffffffffffffffffffffffffffffffffffffffffffffffffffffffff1916827bffffffffffffffffffffffffffffffffffffffffffffffffffffffff1916149050919050565b6000806115ec84611239565b9050600073ffffffffffffffffffffffffffffffffffffffff168373ffffffffffffffffffffffffffffffffffffffff161461162e5761162d8184866119c1565b5b600073ffffffffffffffffffffffffffffffffffffffff168173ffffffffffffffffffffffffffffffffffffffff16146116bf57611670600085600080611276565b6001600360008373ffffffffffffffffffffffffffffffffffffffff1673ffffffffffffffffffffffffffffffffffffffff168152602001908152602001600020600082825403925050819055505b600073ffffffffffffffffffffffffffffffffffffffff168573ffffffffffffffffffffffffffffffffffffffff1614611742576001600360008773ffffffffffffffffffffffffffffffffffffffff1673ffffffffffffffffffffffffffffffffffffffff168152602001908152602001600020600082825401925050819055505b846002600086815260200190815260200160002060006101000a81548173ffffffffffffffffffffffffffffffffffffffff021916908373ffffffffffffffffffffffffffffffffffffffff160217905550838573ffffffffffffffffffffffffffffffffffffffff168273ffffffffffffffffffffffffffffffffffffffff167fddf252ad1be2c89b69c2b068fc378daa952ba7f163c4a11628f55a4df523b3ef60405160405180910390a4809150509392505050565b600073ffffffffffffffffffffffffffffffffffffffff168273ffffffffffffffffffffffffffffffffffffffff160361186c5760006040517f64a0ae920000000000000000000000000000000000000000000000000000000081526004016118639190611ebe565b60405180910390fd5b600061187a83836000610a7b565b9050600073ffffffffffffffffffffffffffffffffffffffff168173ffffffffffffffffffffffffffffffffffffffff16146118ee5760006040517f73c6ac6e0000000000000000000000000000000000000000000000000000000081526004016118e59190611ebe565b60405180910390fd5b505050565b60606000600161190284611a85565b01905060008167ffffffffffffffff81111561192157611920611fcc565b5b6040519080825280601f01601f1916602001820160405280156119535781602001600182028036833780820191505090505b509050600082602001820190505b6001156119b6578080600190039150507f3031323334353637383961626364656600000000000000000000000000000000600a86061a8153600a85816119aa576119a961280c565b5b04945060008503611961575b819350505050919050565b6119cc838383611bd8565b611a8057600073ffffffffffffffffffffffffffffffffffffffff168373ffffffffffffffffffffffffffffffffffffffff1603611a4157806040517f7e273289000000000000000000000000000000000000000000000000000000008152600401611a389190611fa7565b60405180910390fd5b81816040517f177e802f000000000000000000000000000000000000000000000000000000008152600401611a7792919061283b565b60405180910390fd5b505050565b600080600090507a184f03e93ff9f4daa797ed6e38ed64bf6a1f0100000000000000008310611ae3577a184f03e93ff9f4daa797ed6e38ed64bf6a1f0100000000000000008381611ad957611ad861280c565b5b0492506040810190505b6d04ee2d6d415b85acef81000000008310611b20576d04ee2d6d415b85acef81000000008381611b1657611b1561280c565b5b0492506020810190505b662386f26fc100008310611b4f57662386f26fc100008381611b4557611b4461280c565b5b0492506010810190505b6305f5e1008310611b78576305f5e1008381611b6e57611b6d61280c565b5b0492506008810190505b6127108310611b9d576127108381611b9357611b9261280c565b5b0492506004810190505b60648310611bc05760648381611bb657611bb561280c565b5b0492506002810190505b600a8310611bcf576001810190505b80915050919050565b60008073ffffffffffffffffffffffffffffffffffffffff168373ffffffffffffffffffffffffffffffffffffffff1614158015611c9057508273ffffffffffffffffffffffffffffffffffffffff168473ffffffffffffffffffffffffffffffffffffffff161480611c515750611c508484610821565b5b80611c8f57508273ffffffffffffffffffffffffffffffffffffffff16611c7783610a24565b73ffffffffffffffffffffffffffffffffffffffff16145b5b90509392505050565b6000604051905090565b600080fd5b600080fd5b60007fffffffff0000000000000000000000000000000000000000000000000000000082169050919050565b611ce281611cad565b8114611ced57600080fd5b50565b600081359050611cff81611cd9565b92915050565b600060208284031215611d1b57611d1a611ca3565b5b6000611d2984828501611cf0565b91505092915050565b60008115159050919050565b611d4781611d32565b82525050565b6000602082019050611d626000830184611d3e565b92915050565b600081519050919050565b600082825260208201905092915050565b60005b83811015611da2578082015181840152602081019050611d87565b60008484015250505050565b6000601f19601f8301169050919050565b6000611dca82611d68565b611dd48185611d73565b9350611de4818560208601611d84565b611ded81611dae565b840191505092915050565b60006020820190508181036000830152611e128184611dbf565b905092915050565b6000819050919050565b611e2d81611e1a565b8114611e3857600080fd5b50565b600081359050611e4a81611e24565b92915050565b600060208284031215611e6657611e65611ca3565b5b6000611e7484828501611e3b565b91505092915050565b600073ffffffffffffffffffffffffffffffffffffffff82169050919050565b6000611ea882611e7d565b9050919050565b611eb881611e9d565b82525050565b6000602082019050611ed36000830184611eaf565b92915050565b611ee281611e9d565b8114611eed57600080fd5b50565b600081359050611eff81611ed9565b92915050565b60008060408385031215611f1c57611f1b611ca3565b5b6000611f2a85828601611ef0565b9250506020611f3b85828601611e3b565b9150509250929050565b600080600060608486031215611f5e57611f5d611ca3565b5b6000611f6c86828701611ef0565b9350506020611f7d86828701611ef0565b9250506040611f8e86828701611e3b565b9150509250925092565b611fa181611e1a565b82525050565b6000602082019050611fbc6000830184611f98565b92915050565b600080fd5b600080fd5b7f4e487b7100000000000000000000000000000000000000000000000000000000600052604160045260246000fd5b61200482611dae565b810181811067ffffffffffffffff8211171561202357612022611fcc565b5b80604052505050565b6000612036611c99565b90506120428282611ffb565b919050565b600067ffffffffffffffff82111561206257612061611fcc565b5b61206b82611dae565b9050602081019050919050565b82818337600083830152505050565b600061209a61209584612047565b61202c565b9050828152602081018484840111156120b6576120b5611fc7565b5b6120c1848285612078565b509392505050565b600082601f8301126120de576120dd611fc2565b5b81356120ee848260208601612087565b91505092915050565b60006020828403121561210d5761210c611ca3565b5b600082013567ffffffffffffffff81111561212b5761212a611ca8565b5b612137848285016120c9565b91505092915050565b60006020828403121561215657612155611ca3565b5b600061216484828501611ef0565b91505092915050565b61217681611d32565b811461218157600080fd5b50565b6000813590506121938161216d565b92915050565b600080604083850312156121b0576121af611ca3565b5b60006121be85828601611ef0565b92505060206121cf85828601612184565b9150509250929050565b600067ffffffffffffffff8211156121f4576121f3611fcc565b5b6121fd82611dae565b9050602081019050919050565b600061221d612218846121d9565b61202c565b90508281526020810184848401111561223957612238611fc7565b5b612244848285612078565b509392505050565b600082601f83011261226157612260611fc2565b5b813561227184826020860161220a565b91505092915050565b6000806000806080858703121561229457612293611ca3565b5b60006122a287828801611ef0565b94505060206122b387828801611ef0565b93505060406122c487828801611e3b565b925050606085013567ffffffffffffffff8111156122e5576122e4611ca8565b5b6122f18782880161224c565b91505092959194509250565b6000806040838503121561231457612313611ca3565b5b600061232285828601611ef0565b925050602061233385828601611ef0565b9150509250929050565b7f4e487b7100000000000000000000000000000000000000000000000000000000600052602260045260246000fd5b6000600282049050600182168061238457607f821691505b6020821081036123975761239661233d565b5b50919050565b60006060820190506123b26000830186611eaf565b6123bf6020830185611f98565b6123cc6040830184611eaf565b949350505050565b7f4e487b7100000000000000000000000000000000000000000000000000000000600052601160045260246000fd5b600061240e82611e1a565b91507fffffffffffffffffffffffffffffffffffffffffffffffffffffffffffffffff82036124405761243f6123d4565b5b600182019050919050565b60008190508160005260206000209050919050565b60006020601f8301049050919050565b600082821b905092915050565b6000600883026124ad7fffffffffffffffffffffffffffffffffffffffffffffffffffffffffffffffff82612470565b6124b78683612470565b95508019841693508086168417925050509392505050565b6000819050919050565b60006124f46124ef6124ea84611e1a565b6124cf565b611e1a565b9050919050565b6000819050919050565b61250e836124d9565b61252261251a826124fb565b84845461247d565b825550505050565b600090565b61253761252a565b612542818484612505565b505050565b5b818110156125665761255b60008261252f565b600181019050612548565b5050565b601f8211156125ab5761257c8161244b565b61258584612460565b81016020851015612594578190505b6125a86125a085612460565b830182612547565b50505b505050565b600082821c905092915050565b60006125ce600019846008026125b0565b1980831691505092915050565b60006125e783836125bd565b9150826002028217905092915050565b61260082611d68565b67ffffffffffffffff81111561261957612618611fcc565b5b612623825461236c565b61262e82828561256a565b600060209050601f831160018114612661576000841561264f578287015190505b61265985826125db565b8655506126c1565b601f19841661266f8661244b565b60005b8281101561269757848901518255600182019150602085019450602081019050612672565b868310156126b457848901516126b0601f8916826125bd565b8355505b6001600288020188555050505b505050505050565b600081519050919050565b600082825260208201905092915050565b60006126f0826126c9565b6126fa81856126d4565b935061270a818560208601611d84565b61271381611dae565b840191505092915050565b60006080820190506127336000830187611eaf565b6127406020830186611eaf565b61274d6040830185611f98565b818103606083015261275f81846126e5565b905095945050505050565b60008151905061277981611cd9565b92915050565b60006020828403121561279557612794611ca3565b5b60006127a38482850161276a565b91505092915050565b600081905092915050565b60006127c282611d68565b6127cc81856127ac565b93506127dc818560208601611d84565b80840191505092915050565b60006127f482856127b7565b915061280082846127b7565b91508190509392505050565b7f4e487b7100000000000000000000000000000000000000000000000000000000600052601260045260246000fd5b60006040820190506128506000830185611eaf565b61285d6020830184611f98565b939250505056fea2646970667358221220300db2c96ab05b32add09067f90e116f17696fe5a8fd6675239cd556de752f7564736f6c63430008180033",
  "linkReferences": {},
  "deployedLinkReferences": {}
}